{"abi":[{"type":"function","name":"query","inputs":[{"name":"rewardsContract","type":"address","internalType":"contract CometRewards"},{"name":"cometMarkets","type":"address[]","internalType":"address[]"}],"outputs":[{"name":"","type":"tuple[]","internalType":"struct CometRewards.RewardConfig[]","components":[{"name":"token","type":"address","internalType":"address"},{"name":"rescaleFactor","type":"uint64","internalType":"uint64"},{"name":"shouldUpscale","type":"bool","internalType":"bool"}]}],"stateMutability":"view"}],"bytecode":{"object":"0x6080806040523460155761036d908161001b8239f35b600080fdfe60406080815260048036101561001457600080fd5b6000803560e01c63b1a241351461002a57600080fd5b3461029e578260031936011261029e576001600160a01b039260043584811693919084900361029a576024946024359467ffffffffffffffff91828711610296573660238801121561029657866004013593610085856102f5565b976100928251998a6102d3565b8589526020956024878b019160051b8301019136831161029257602401905b828210610276575050508751946100c7866102f5565b946100d4835196876102d3565b8686526100e0876102f5565b601f1901828a5b82811061025057505050885b60ff8116888110156101f5578c8661010b838f61030d565b51875163045136d760e31b815291168c82015260609182908290818c5afa9182156101eb578d92610176575b50509061014f91610148828b61030d565b528861030d565b5060ff809116908114610164576001016100f3565b634e487b7160e01b8a52601189528b8afd5b90809250813d83116101e4575b61018d81836102d3565b810103126101e0578551906101a1826102a1565b805188811681036101dc5782528581015185811681036101dc578287015286015180151581036101d8578682015261014f38610137565b8c80fd5b8d80fd5b8b80fd5b503d610183565b87513d8f823e3d90fd5b5050825182815286518184018190529093848101938089019390918c915b8483106102205787870388f35b855180518a1688528085015182168886015282015115158783015260609096019594830194600190920191610213565b855161025b816102a1565b8c81528c838201528c8782015282828b0101520183906100e7565b8135858116810361028e5781529087019087016100b1565b8a80fd5b8980fd5b8580fd5b8280fd5b80fd5b6060810190811067ffffffffffffffff8211176102bd57604052565b634e487b7160e01b600052604160045260246000fd5b90601f8019910116810190811067ffffffffffffffff8211176102bd57604052565b67ffffffffffffffff81116102bd5760051b60200190565b80518210156103215760209160051b010190565b634e487b7160e01b600052603260045260246000fdfea2646970667358221220fafdf0b037a7e9902f03ca8fbcb7e5fb8763dd433766ca3430a79b8274ca162e64736f6c63430008190033","linkReferences":{}},"methodIdentifiers":{"query(address,address[])":"b1a24135"},"id":18}